{
  "_format": "hh-sol-artifact-1",
  "contractName": "Ballot",
  "sourceName": "contracts/ballot.sol",
  "abi": [
    {
      "inputs": [
        {
          "internalType": "uint256",
          "name": "numProposals",
          "type": "uint256"
        }
      ],
      "stateMutability": "nonpayable",
      "type": "constructor"
    },
    {
      "inputs": [
        {
          "internalType": "enum Ballot.Phase",
          "name": "x",
          "type": "uint8"
        }
      ],
      "name": "changeState",
      "outputs": [],
      "stateMutability": "nonpayable",
      "type": "function"
    },
    {
      "inputs": [],
      "name": "getWinner",
      "outputs": [
        {
          "internalType": "uint256",
          "name": "",
          "type": "uint256"
        }
      ],
      "stateMutability": "view",
      "type": "function"
    },
    {
      "inputs": [
        {
          "internalType": "address",
          "name": "voter",
          "type": "address"
        }
      ],
      "name": "register",
      "outputs": [],
      "stateMutability": "nonpayable",
      "type": "function"
    },
    {
      "inputs": [],
      "name": "state",
      "outputs": [
        {
          "internalType": "enum Ballot.Phase",
          "name": "",
          "type": "uint8"
        }
      ],
      "stateMutability": "view",
      "type": "function"
    },
    {
      "inputs": [
        {
          "internalType": "uint256",
          "name": "candidate",
          "type": "uint256"
        }
      ],
      "name": "vote",
      "outputs": [],
      "stateMutability": "nonpayable",
      "type": "function"
    }
  ],
  "bytecode": "0x60806040526000600360006101000a81548160ff0219169083600381111561002a576100296101d7565b5b021790555034801561003b57600080fd5b5060405161108e38038061108e833981810160405281019061005d9190610241565b60038110156100a1576040517f08c379a0000000000000000000000000000000000000000000000000000000008152600401610098906102f1565b60405180910390fd5b336000806101000a81548173ffffffffffffffffffffffffffffffffffffffff021916908373ffffffffffffffffffffffffffffffffffffffff1602179055506002600160008060009054906101000a900473ffffffffffffffffffffffffffffffffffffffff1673ffffffffffffffffffffffffffffffffffffffff1673ffffffffffffffffffffffffffffffffffffffff1681526020019081526020016000206000018190555060005b818110156101a55760026040518060200160405280600081525090806001815401808255809150506001900390600052602060002001600090919091909150600082015181600001555050808060010191505061014d565b506001600360006101000a81548160ff021916908360038111156101cc576101cb6101d7565b5b021790555050610311565b7f4e487b7100000000000000000000000000000000000000000000000000000000600052602160045260246000fd5b600080fd5b6000819050919050565b61021e8161020b565b811461022957600080fd5b50565b60008151905061023b81610215565b92915050565b60006020828403121561025757610256610206565b5b60006102658482850161022c565b91505092915050565b600082825260208201905092915050565b7f63616e64696461746520636f756e742073686f756c64206e6f74206c6573732060008201527f7468616e20746872656500000000000000000000000000000000000000000000602082015250565b60006102db602a8361026e565b91506102e68261027f565b604082019050919050565b6000602082019050818103600083015261030a816102ce565b9050919050565b610d6e806103206000396000f3fe608060405234801561001057600080fd5b50600436106100575760003560e01c80630121b93f1461005c578063268f1153146100785780634420e486146100945780638e7ea5b2146100b0578063c19d93fb146100ce575b600080fd5b61007660048036038101906100719190610746565b6100ec565b005b610092600480360381019061008d9190610798565b61026f565b005b6100ae60048036038101906100a99190610823565b6103a0565b005b6100b86105db565b6040516100c5919061085f565b60405180910390f35b6100d66106f8565b6040516100e391906108f1565b60405180910390f35b60028060038111156101015761010061087a565b5b600360009054906101000a900460ff1660038111156101235761012261087a565b5b14610163576040517f08c379a000000000000000000000000000000000000000000000000000000000815260040161015a90610969565b60405180910390fd5b6000600160003373ffffffffffffffffffffffffffffffffffffffff1673ffffffffffffffffffffffffffffffffffffffff16815260200190815260200160002090508060010160009054906101000a900460ff16806101c857506002805490508310155b15610208576040517f08c379a00000000000000000000000000000000000000000000000000000000081526004016101ff906109fb565b60405180910390fd5b82816002018190555060018160010160006101000a81548160ff02191690831515021790555080600001546002848154811061024757610246610a1b565b5b9060005260206000200160000160008282546102639190610a79565b92505081905550505050565b60008054906101000a900473ffffffffffffffffffffffffffffffffffffffff1673ffffffffffffffffffffffffffffffffffffffff163373ffffffffffffffffffffffffffffffffffffffff16146102fd576040517f08c379a00000000000000000000000000000000000000000000000000000000081526004016102f490610b1f565b60405180910390fd5b600360009054906101000a900460ff16600381111561031f5761031e61087a565b5b8160038111156103325761033161087a565b5b1015610373576040517f08c379a000000000000000000000000000000000000000000000000000000000815260040161036a90610b8b565b60405180910390fd5b80600360006101000a81548160ff021916908360038111156103985761039761087a565b5b021790555050565b60018060038111156103b5576103b461087a565b5b600360009054906101000a900460ff1660038111156103d7576103d661087a565b5b14610417576040517f08c379a000000000000000000000000000000000000000000000000000000000815260040161040e90610969565b60405180910390fd5b60008054906101000a900473ffffffffffffffffffffffffffffffffffffffff1673ffffffffffffffffffffffffffffffffffffffff163373ffffffffffffffffffffffffffffffffffffffff16146104a5576040517f08c379a000000000000000000000000000000000000000000000000000000000815260040161049c90610bf7565b60405180910390fd5b600160008373ffffffffffffffffffffffffffffffffffffffff1673ffffffffffffffffffffffffffffffffffffffff16815260200190815260200160002060010160009054906101000a900460ff1615610535576040517f08c379a000000000000000000000000000000000000000000000000000000000815260040161052c90610c89565b60405180910390fd5b60018060008473ffffffffffffffffffffffffffffffffffffffff1673ffffffffffffffffffffffffffffffffffffffff168152602001908152602001600020600001819055506000600160008473ffffffffffffffffffffffffffffffffffffffff1673ffffffffffffffffffffffffffffffffffffffff16815260200190815260200160002060010160006101000a81548160ff0219169083151502179055505050565b600060038060038111156105f2576105f161087a565b5b600360009054906101000a900460ff1660038111156106145761061361087a565b5b14610654576040517f08c379a000000000000000000000000000000000000000000000000000000000815260040161064b90610969565b60405180910390fd5b600080600280549050905060005b6002805490508110156106cd57826002828154811061068457610683610a1b565b5b906000526020600020016000015411156106c057600281815481106106ac576106ab610a1b565b5b906000526020600020016000015492508091505b8080600101915050610662565b50600280805490506106df9190610cd8565b8210156106ef576106ee610d09565b5b80935050505090565b600360009054906101000a900460ff1681565b600080fd5b6000819050919050565b61072381610710565b811461072e57600080fd5b50565b6000813590506107408161071a565b92915050565b60006020828403121561075c5761075b61070b565b5b600061076a84828501610731565b91505092915050565b6004811061078057600080fd5b50565b60008135905061079281610773565b92915050565b6000602082840312156107ae576107ad61070b565b5b60006107bc84828501610783565b91505092915050565b600073ffffffffffffffffffffffffffffffffffffffff82169050919050565b60006107f0826107c5565b9050919050565b610800816107e5565b811461080b57600080fd5b50565b60008135905061081d816107f7565b92915050565b6000602082840312156108395761083861070b565b5b60006108478482850161080e565b91505092915050565b61085981610710565b82525050565b60006020820190506108746000830184610850565b92915050565b7f4e487b7100000000000000000000000000000000000000000000000000000000600052602160045260246000fd5b600481106108ba576108b961087a565b5b50565b60008190506108cb826108a9565b919050565b60006108db826108bd565b9050919050565b6108eb816108d0565b82525050565b600060208201905061090660008301846108e2565b92915050565b600082825260208201905092915050565b7f73746174652073686f756c642062652076616c69640000000000000000000000600082015250565b600061095360158361090c565b915061095e8261091d565b602082019050919050565b6000602082019050818103600083015261098281610946565b9050919050565b7f616c726561647920766f746564206f7220696e76616c69642070726f706f736160008201527f6c00000000000000000000000000000000000000000000000000000000000000602082015250565b60006109e560218361090c565b91506109f082610989565b604082019050919050565b60006020820190508181036000830152610a14816109d8565b9050919050565b7f4e487b7100000000000000000000000000000000000000000000000000000000600052603260045260246000fd5b7f4e487b7100000000000000000000000000000000000000000000000000000000600052601160045260246000fd5b6000610a8482610710565b9150610a8f83610710565b9250828201905080821115610aa757610aa6610a4a565b5b92915050565b7f6f6e6c79206368616972506572736f6e2063616e206368616e6765207374617460008201527f6500000000000000000000000000000000000000000000000000000000000000602082015250565b6000610b0960218361090c565b9150610b1482610aad565b604082019050919050565b60006020820190508181036000830152610b3881610afc565b9050919050565b7f73746174652073686f756c642062652062696767657200000000000000000000600082015250565b6000610b7560168361090c565b9150610b8082610b3f565b602082019050919050565b60006020820190508181036000830152610ba481610b68565b9050919050565b7f6f6e6c79206368616972506572736f6e2063616e207265676973746572000000600082015250565b6000610be1601d8361090c565b9150610bec82610bab565b602082019050919050565b60006020820190508181036000830152610c1081610bd4565b9050919050565b7f766f74657220697320766f7465642c63616e206e6f742062652072656769737460008201527f6564000000000000000000000000000000000000000000000000000000000000602082015250565b6000610c7360228361090c565b9150610c7e82610c17565b604082019050919050565b60006020820190508181036000830152610ca281610c66565b9050919050565b7f4e487b7100000000000000000000000000000000000000000000000000000000600052601260045260246000fd5b6000610ce382610710565b9150610cee83610710565b925082610cfe57610cfd610ca9565b5b828204905092915050565b7f4e487b7100000000000000000000000000000000000000000000000000000000600052600160045260246000fdfea264697066735822122053fb2b04e271bc2a468e21839fc2377d34af3cfed6142ff1cd965c6dc494347664736f6c634300081c0033",
  "linkReferences": {},
  "deployedLinkReferences": {}
}